:100000000C9412040C9456040C9456040C9456044C
:100010000C9456040C9456040C9456040C945604F8
:100020000C9456040C9456040C941F160C94E3156F
:100030000C9448240C9456040C9456040C945604C6
:100040000C9456040C945D050C9456040C945604C0
:100050000C9456040C94CC240C9456040C94560422
:100060000C9456040C9456040C9456040C945604A8
:100070000C9456040C9456040C9456040C94560498
:100080000C9451090C9456040C9456040C94560488
:100090000C9456040C9456040C9456040C94560478
:1000A0000C9456040C9456040C94560400201E0024
:1000B0001F0020002100220023002400250026002C
:1000C00027002D002E002A002B0014001A00080023
:1000D000150017001C0018000C00120013002F0060
:1000E000300031000B2004001600070009000A0050
:1000F0000B000D000E000F0033003400000028003C
:10010000E10000001D001B000600190005001100A1
:1001100010003600370038000000E500E000E30082
:10012000E200000000002C000000000000000000C1
:100130000920E600E700E40000201E001F00200068
:1001400021002200230024002500260027002D0086
:100150002E002A002B0014001A00080015001700BA
:100160001C0018000C00120013002F00300031009A
:100170000B2004001600070009000A000B000D0008
:100180000E000F003300340000002800E1000000E2
:100190001D001B00060019000500110010003600AC
:1001A000370038000000E500E000E200E300000056
:1001B00000002C000000000000000000E700E60046
:1001C000E400092035003A003B003C003D003E00C1
:1001D0003F004000410042004300440045004C0005
:1001E0000100010052000100B200490001004B0073
:1001F00001000100460047004800010001005000D6
:1002000051004F0001004A005000510052004F00C1
:100210004D000100000001000100000010401240EC
:100220001140003001004E000100AA00A800A90002
:1002300000004B000100010001000000000001006F
:10024000000000000000000065004A004E004D0064
:10025000000000000000000000000000000000009E
:10026000000000000000000000000000000000008E
:10027000520000000000000000000000000000002C
:1002800000001040114012400000500051004F008B
:1002900000004A005000510052004F004D00000085
:1002A00000000000000000000120022003200420C4
:1002B0000520062007200820000000000000520052
:1002C000000000000000000000000100000000002D
:1002D000000000000A20500051004F0000F001F023
:1002E00002F003F004F005F006F007F008F00885CE
:1002F000178139A20001E10104020401160216016E
:1003000007020702E101090209010A020A010B02C0
:100310000B000001E1010B020B02E10108020801E0
:100320000F020F010F020F01120212000000000065
:100330000101010202030405050607090A0B0C0E60
:100340000F1112141517191B1D1F212325282A2CE4
:100350002F313436393B3E414346494C4F52555874
:100360005A5D6164676A6D707376797C7F83868974
:100370008C8F9295989B9EA2A5A7AAADB0B3B6B953
:10038000BCBEC1C4C6C9CBCED0D3D5D7DADCDEE083
:10039000E2E4E6E8EAEBEDEEF0F1F3F4F5F6F8F975
:1003A000FAFAFBFCFDFDFEFEFEFFFFFFFFFFFFFF75
:1003B000FEFEFEFDFDFCFBFAFAF9F8F6F5F4F3F1AA
:1003C000F0EEEDEBEAE8E6E4E2E0DEDCDAD7D5D306
:1003D000D0CECBC9C6C4C1BEBCB9B6B3B0ADAAA756
:1003E000A5A29E9B9895928F8C898683807C797636
:1003F00073706D6A6764615D5A5855524F4C494637
:1004000043413E3B393634312F2C2A282523211FE6
:100410001D1B1917151412110F0E0C0B0A090706D4
:1004200005050403020201010100000000010102B0
:100430000202020202030303030303030303030391
:10044000030303040404040404040404040404056E
:100450000505050505050505050606060606060645
:100460000607070707070707080808080808090913
:10047000090909090A0A0A0A0A0B0B0B0B0B0C0CD7
:100480000C0C0C0D0D0D0D0E0E0E0E0F0F0F10108F
:100490001010111111121212131313141414151534
:1004A000161616171718181919191A1A1B1B1C1CBF
:1004B0001D1D1E1E1F20202121222323242425262A
:1004C00026272828292A2B2B2C2D2E2F303031326D
:1004D000333435363738393A3B3C3D3E3F40414274
:1004E00044454647494A4B4C4E4F51525355565836
:1004F0005A5B5D5E6062636567696B6D6E70727496
:1005000076797B7D7F818486888B8D909295979A72
:100510009D9FA2A5A8ABAEB1B4B7BABEC1C4C8CBAB
:10052000CFD3D6DADEE2E6EAEEF2F8FF0000000012
:100530000101010202030405050607090A0B0C0E5E
:100540000F1112141517191B1D1F212325282A2CE2
:100550002F313436393B3E414346494C4F52555872
:100560005A5D6164676A6D707376797C7F83868972
:100570008C8F9295989B9EA2A5A7AAADB0B3B6B951
:10058000BCBEC1C4C6C9CBCED0D3D5D7DADCDEE081
:10059000E2E4E6E8EAEBEDEEF0F1F3F4F5F6F8F973
:1005A000FAFAFBFCFDFDFEFEFEFFFFFFFFFFFFFF73
:1005B000FEFEFEFDFDFCFBFAFAF9F8F6F5F4F3F1A8
:1005C000F0EEEDEBEAE8E6E4E2E0DEDCDAD7D5D304
:1005D000D0CECBC9C6C4C1BEBCB9B6B3B0ADAAA754
:1005E000A5A29E9B9895928F8C898683807C797634
:1005F00073706D6A6764615D5A5855524F4C494635
:1006000043413E3B393634312F2C2A282523211FE4
:100610001D1B1917151412110F0E0C0B0A090706D2
:100620000505040302020101010000001E140A0571
:10063000783C1E64321464321464321405010906D5
:10064000A101050719E029E71500250195087501A5
:100650008102950175088101050819012905950593
:10066000750191029501750391010507190029FF94
:10067000150025FF950675088100C005010902A136
:10068000010901A100050919012905150025019598
:100690000575018102950175038101050109300984
:1006A000311581257F950275088106093815812548
:1006B0007F950175088106050C0A38021581257F92
:1006C000950175088106C0C005010980A101850258
:1006D00016010026B7001A01002AB700751095010F
:1006E0008100C0050C0901A1018503160100269CAB
:1006F000021A01002A9C02751095018100C0063182
:10070000FF0974A1010975150025FF952075088161
:10071000020976150025FF952075089102C0050194
:100720000906A101050719E029E71500250195082B
:1007300075018102050819012905950575019102C8
:100740009501750391010507190029771500250109
:10075000957875018102C01201100100000008EDBA
:10076000FE606003000102000109028D0005010026
:10077000A0FA090400000103010100092111010090
:1007800001223F000705810308000A090401000156
:1007900003010200092111010001224D0007058219
:1007A0000308000A090402000103000000092111E6
:1007B0000100012236000705830308000A0904032B
:1007C000000203000000092111010001222000079E
:1007D0000584032000010705040320000109040427
:1007E0000001030000000921110100012239000766
:1007F000058503100001040309040C0353004100A4
:10080000540041004E0000001A0347004800360023
:100810003000200052004700420020004D004F00F1
:100820004400000011241FBECFEFDAE0DEBFCDBFD1
:1008300004B603FE24C080914A0290914B02A0911D
:100840004C02B0914D028750904BA740B04BB9F489
:1008500010924A0210924B0210924C0210924D02DA
:1008600014BE84B7877F84BF88E10FB6F894809365
:100870006000109260000FBEE0E0F8E3099511E01F
:10088000A0E0B1E0E6E5FBE502C005900D92A436DC
:10089000B107D9F712E0A4E6B1E001C01D92AA3475
:1008A000B107E1F70E94F5110C94A92D0C940000FA
:1008B000FC01662329F0613061F020E030E011C0D6
:1008C0008281882319F422E133E00BC023E133E075
:1008D00008C08281882319F424EF32E002C025EF9A
:1008E00032E0C9010895CF93DF93EC01643009F43D
:1008F00044C0653058F46130A1F1613098F0623045
:1009000009F459C0633009F05BC031C0663009F4A6
:1009100040C06630C0F1673009F441C0683009F06A
:100920004FC043C00E94C023282F2272209364012D
:100930008A81882361F0222319F085E390E002C0C8
:1009400089E290E00E9440230E94F82339C02223CC
:1009500019F085E390E002C089E290E00E947E23D6
:10096000F3CF8A81882361F10E94F70A29C08A8126
:10097000882331F10E94900A23C08A81882301F1E3
:100980000E94700A1DC08A818823D1F00E94540AF7
:1009900017C08A818823A1F00E94390A11C08A8178
:1009A000882371F00E941D0A0BC08A81882341F0C0
:1009B0000E94020A05C08A81882311F00E94EC0A75
:1009C000DF91CF9108950895089584EE94E0009703
:1009D00011F0FC01099508950E94FE040E943C0B51
:1009E00083EE94E0009711F0FC010995089581FFD2
:1009F00002C0229A01C022982A9808958091660127
:100A00008823B1F481E08093660180918100886041
:100A100080938100809181008160809381009FB7E5
:100A2000F89483E08093890080ED809388009FBFD5
:100A300008952E9A08952E980895EFE6F0E08081AB
:100A4000826080830895EFE6F0E080818D7F80836F
:100A5000089580936701269A882319F00E941D0546
:100A600008950E9423050E941B0508958091670147
:100A7000813011F485E50BC0823011F482E807C0A3
:100A8000833011F48EEB03C0843021F48FEF809318
:100A900068010895853081F4809169018F5F8093AA
:100AA0006901E82FF0E0E45DFC4FE491E093680118
:100AB0008F3F11F41092690108951F920F920FB6A3
:100AC0000F9211242F933F934F935F936F937F93D4
:100AD0008F939F93AF93BF93EF93FF9380916501A3
:100AE0008F5F8093650190910001891731F4109216
:100AF00065010E9419050E9436059091650180915B
:100B00006801981711F40E941B05FF91EF91BF91A6
:100B1000AF919F918F917F916F915F914F913F9195
:100B20002F910F900FBE0F901F901895FC018EB162
:100B3000242F209528239EB1942B3FB7F89412C000
:100B4000819148E09EB9000000C087FF2EB9880F50
:100B5000000000C000C000C02EB900C04A9591F747
:100B6000615070406115710559F73FBF0895FB0151
:100B70002DB1242B2DB9660F771F6E0F7F1F0E949A
:100B8000960588EC90E00197F1F7089544E00E9403
:100B9000B7050895F9018183608342830895CF9258
:100BA000DF92EF92FF920F931F93CF93DF93EC01AD
:100BB000E42F6901F0E0E45DFB4FE4904FEF50E07B
:100BC000FA01E61BF109E45DFB4F8491809521F465
:100BD0006E2D9E2D4E2DBAC0EE2DF0E0481B510912
:100BE0004E9FC0014F9F900D5E9F900D1124092FC5
:100BF000112707FD1A952CE330E0CE016CE370E07D
:100C00000E94432D6230710509F441C063307105C3
:100C100040F46115710591F06130710509F096C0DD
:100C20001EC06430710509F462C06430710508F4B7
:100C300046C06530710509F089C070C0E01BF1093C
:100C4000EC9FC001ED9F900DFC9F900D11246CE373
:100C500070E00E94432D962F900F6E2D16C0E01B62
:100C6000F109CE016CE370E00E94432D281B390B83
:100C7000E29FC001E39F900DF29F900D11246CE361
:100C800070E00E94432D600F9E2D402F5FC0E01B3F
:100C9000F109CE016CE370E00E94432D9C01E29FBC
:100CA000C001E39F900DF29F900D11246CE370E062
:100CB0000E94432D462F400F602F9E2D47C0E01B02
:100CC000F109CE016CE370E00E94432D281B390B23
:100CD000E29FC001E39F900DF29F900D11246CE301
:100CE00070E00E94432D962F900F602F15C0E01BDF
:100CF000F109CE016CE370E00E94432D9C01E29F5C
:100D0000C001E39F900DF29F900D11246CE370E001
:100D10000E94432D600F902F4E2D18C0E01BF1094B
:100D2000CE016CE370E00E94432D281B390BE29F3B
:100D3000C001E39F900DF29F900D11246CE370E0D1
:100D40000E94432D462F400F6E2D902F862F692F26
:100D500096010E94CA05DF91CF911F910F91FF90DC
:100D6000EF90DF90CF90089580917C01882379F4F3
:100D700081E080937C0189E0809391009FB7F89493
:100D800083E08093990080ED809398009FBF089541
:100D9000E1E7F0E08081826080830895E1E7F0E0A0
:100DA00080818D7F8083089580911C0280FF03C025
:100DB00084E292E00CC0E4E2F2E01182108212823E
:100DC000339682E0EC33F807C1F7CF01489768E02B
:100DD00070E00E94C60508957F928F929F92AF9215
:100DE000BF92CF92DF92EF92FF920F931F93DF9308
:100DF000CF93CDB7DEB768970FB6F894DEBF0FBEBE
:100E0000CDBF182F80916B0190916C010E94A1249D
:100E1000E12FF0E0E75CF94F249130E0821793076F
:100E200008F48AC00E94942490936C0180936B0113
:100E300070906D0180910101A82EBB24A7FCB09495
:100E40008E010F5F1F4FEE24FF24F80111821082E4
:100E500012824801CC2477E0D72ECA9C802D112421
:100E6000870D87FF02C080E003C088300CF087E068
:100E7000992787FD9095E816F906A1F420911C02A8
:100E8000221F2227221F90911D02892F880F822B5B
:100E9000991F9927991F60911E0240911F0294018A
:100EA0000E94CF05C394DA94C1F60894E11CF11CAA
:100EB0000D5F1F4FF8E0EF16F10439F6A4E2B2E03F
:100EC0002BE030E0AE014F5F5F4F822F877090E0E4
:100ED000FC01EE0FFF1FE80FF91FE40FF51F8181E2
:100EE00011968C93119780818C93828112968C93AA
:100EF00012972F5F3F4F13962331310531F70E9430
:100F0000D4068091010190916D01813049F49A3F9E
:100F10002CF489EF80936D018FEF08C091500AC0C7
:100F20009F303CF08EE080936D0181E08093010161
:100F300003C09F5F90936D0168960FB6F894DEBF73
:100F40000FBECDBFCF91DF911F910F91FF90EF901A
:100F5000DF90CF90BF90AF909F908F907F9008953B
:100F60009F92AF92BF92CF92DF92EF92FF920F9338
:100F70001F93CF93DF93182F80FD03C0CC24C3941D
:100F800002C0CC24CA9480916E0190916F010E949E
:100F9000A1241695E12FF0E0EA5CF94FE4912E2FA1
:100FA00030E08217930708F461C00E949424909364
:100FB0006F0180936E0190907001C4E2D2E0EE2444
:100FC000FF24198218821A825E01D92C07E010E0F2
:100FD0008D2DD7FC885F992787FD9095E816F90637
:100FE00021F520911C02221F2227221F30911D0271
:100FF000E32FEE0F80911F0290E0AC01049FC0012F
:10100000059F900D149F900D112467E070E00E94E1
:10101000572D462F8E2F822B932F991F9927991F7B
:1010200060911E0295010E94CF05DC0C015010401A
:10103000002371F60894E11CF11C239658E0E51694
:10104000F10409F0BECF0E94D4068091700191E0B6
:10105000C91631F4882311F48DE006C0815004C014
:1010600090E001968770907080937001DF91CF912E
:101070001F910F91FF90EF90DF90CF90BF90AF90B6
:101080009F900895FF920F931F93CF93DF93F82EB5
:1010900080917101909172010E94A124EF2DE6953B
:1010A000F0E0E05DF94FE4912E2F30E082179307D6
:1010B00090F10E94942490937201809371010091A9
:1010C000730110917401C4E2D2E0C80168E671E0D6
:1010D0000E94432D60911E0240911F029E010E94BA
:1010E000CF05035D1F4F239682E0CC33D80769F705
:1010F0000E94D4068091730190917401F0FE06C0A5
:10110000019668E671E00E94432D01C0019790931B
:10111000740180937301DF91CF911F910F91FF9024
:101120000895E4E2F2E0818360834283339692E0A3
:10113000EC33F907C1F70E94D4060895EF92FF92AD
:101140000F931F93DF93CF9300D00F92CDB7DEB7ED
:10115000182F092FF62EE42E80911C0290911D026B
:10116000A0911E02B0911F02809320029093210251
:10117000A0932202B093230280911C0280FF21C021
:10118000812F902F9E012F5F3F4F0E94CF05912FFF
:10119000979599279795809120028F77892B809337
:1011A00020020795002707951695102B1093210212
:1011B000F0922202E09223028A8169814B810E948F
:1011C00091080F900F900F90CF91DF911F910F9189
:1011D000FF90EF9008951F93182F809175019091C3
:1011E00076010E94A124E12FF0E0E05DF94F249107
:1011F00030E082179307E8F00E94942490937601E0
:1012000080937501809177019091780160911E0221
:1012100040911F020E949E08809177019091780171
:10122000019668E671E00E94432D909378018093C7
:1012300077011F9108951F93182F80917901909144
:101240007A010E94A124E12FF0E0E45DF94F24919E
:1012500030E08217930718F10E94942490937A014A
:1012600080937901E0917B01F0E0E45DFA4FE49135
:1012700020911C02221F2227221F90911D02892FDC
:10128000880F822B991F9927991F60911E024E2F5C
:101290000E949E0880917B018F5F80937B011F914C
:1012A00008951F920F920FB60F9211242F933F9320
:1012B0004F935F936F937F938F939F93AF93BF935E
:1012C000EF93FF9390911C0296959F73892F825CF8
:1012D0008F73843028F4892F82500E941B0927C005
:1012E000892F865C8F73833028F4892F86500E9463
:1012F000EB081DC0892F895C8F73863028F4892FF5
:1013000089500E94420813C0892F8F5C8F738630EA
:1013100028F4892F8F500E94B00709C0892F855D5E
:101320008F73833020F4892F85510E94EC06FF9142
:10133000EF91BF91AF919F918F917F916F915F914D
:101340004F913F912F910F900FBE0F901F901895C6
:10135000AB01BC0187E090E00E948C2D0895EF92D4
:10136000FF920F931F93182F092FE62EF42E209132
:101370001C0220FF42C0822F8E77823021F4812F01
:101380000E949E081BC0922F96959F73892F825CA6
:101390008F73843018F4F0901F0210C0965C9F7316
:1013A000993060F4221F2227221F80911D02182FDE
:1013B000110F122B082F001F0027001F912F979548
:1013C0009927979580911C028F77892B80931C0217
:1013D0000795002707951695102B10931D02E09294
:1013E0001E02F0921F0260911C0270911D028091FA
:1013F0001E0290911F020E94A8091F910F91FF9059
:10140000EF90089540911F02842F90E0419714F4CB
:1014100040E001C0415120911C02221F2227221FBF
:1014200090911D02892F880F822B991F9927991F50
:1014300060911E020E94AF09089540911F02842FFF
:1014400090E08F3E910514F04FEF01C04F5E209168
:101450001C02221F2227221F90911D02892F880F14
:10146000822B991F9927991F60911E020E94AF0934
:10147000089560911E02862F90E0419714F460E079
:1014800001C0615120911C02221F2227221F90912E
:101490001D02892F880F822B991F9927991F409130
:1014A0001F020E94AF09089560911E02862F90E0EE
:1014B0008F3E910514F06FEF01C06F5E20911C020A
:1014C000221F2227221F90911D02892F880F822B15
:1014D000991F9927991F40911F020E94AF090895F3
:1014E00080911C02881F8827881F20911D02922F3F
:1014F000990F892B922F991F9927991F8A3091054F
:101500001CF4825A9E4F01C00A9768E671E00E945F
:10151000572D60911E0240911F020E94AF0908954D
:1015200020911C02221F2227221F40911D02342FCE
:10153000330F832F822B942F991F9927991F0A9677
:1015400068E671E00E94572D60911E0240911F02D3
:101550000E94AF09089590911C0290FF3CC088231F
:1015600019F49178926008C09178883110F09E62E9
:1015700003C08F73880F982B90931C0260911C02FC
:1015800070911D0280911E0290911F020E94A80975
:1015900090911C02892F8E77823019F40E94CE061A
:1015A00007C09695925C9F73963110F40E94C8060E
:1015B00020911C02221F2227221F90911D02892F99
:1015C000880F822B991F9927991F60911E024091C5
:1015D0001F020E94AF09089580911C0286958F73A7
:1015E0008F5F883108F081E00E94AB0A08958091F6
:1015F0001C02982F909591708E7F892B80931C02EE
:1016000060911C0270911D0280911E0290911F0238
:101610000E94A80980911C0280FF05C086958F73E7
:101620000E94AB0A08950E94CE0684EF91E020E963
:1016300031E0F9013197F1F70197D9F70E94D4060B
:10164000089583E080931C0284E680931D028CEC55
:1016500080931E0280931F0260911C0270911D02F4
:1016600080911E0290911F020E94A809089587E0B0
:1016700090E00E94722D089580910902816080930C
:10168000090281E080936A010E94D226882321F416
:101690000E94DD260E94210B0E94370B60931C02E2
:1016A00070931D0280931E0290931F026E7761F467
:1016B0000E94210B0E94370B60931C0270931D0245
:1016C00080931E0290931F020E94B40680911C0218
:1016D00080FF04C086958F730E94AB0A08959C0119
:1016E0008B3B910578F4883A910548F5853A910548
:1016F000B8F48430910508F09FC08130910509F05D
:1017000099C095C0803E910508F494C0883E91052B
:1017100008F492C0805F9040409708F08BC085C06D
:10172000853A910519F481E890E47DC0863A9105E7
:1017300019F083E890E477C082E890E474C0883AB6
:10174000910519F482EE94E46EC0893A910519F47A
:1017500089EE94E468C08A3A910519F48AEE94E41B
:1017600062C08B3A910519F485EB94E45CC08C3A25
:10177000910519F486EB94E456C08D3A910519F45D
:1017800087EB94E450C0803B910519F48CEC94E411
:101790004AC08E3A910519F48DEC94E444C08F3A16
:1017A000910519F483E895E43EC0813B910519F455
:1017B0008AE895E438C0823B910519F482E995E402
:1017C00032C0833B910519F484E995E42CC0843B35
:1017D000910519F481E296E426C0853B910519F440
:1017E00083E296E420C0863B910519F484E296E4F6
:1017F0001AC0873B910519F485E296E414C0883B32
:10180000910519F486E296E40EC0893B910519F41E
:1018100087E296E408C08A3B910519F080E094E4E1
:1018200002C08AE296E49C0107C0306505C021E051
:1018300030E002C020E030E0C9010895E62FF0E07A
:10184000EE0FFF1F9CE1799F90011124E20FF31F1F
:101850009CE8899FC0011124E80FF91FE455FF4F50
:1018600025913491C9010895FC01EE0FFF1FE45A40
:10187000FE4F25913491C9010895FC01EE0FFF1F21
:10188000E452FD4F25913491C90108950E941E0C28
:10189000AC018050914080509F4118F4CA019F7163
:1018A0000895CA01805090428050904128F4CA01A6
:1018B0009F700E943D0C0895CA0180509043805053
:1018C000904120F4CA019070906C0895CA01805034
:1018D0009044409728F4CA018F709070946D0895D9
:1018E00080E44031580719F480E091ED089520E438
:1018F0004131520719F480E090ED089580E44231BF
:10190000580719F480E092ED089520E4433152071E
:1019100019F480E093ED089580E54030580771F4A4
:101920000E94ED1984EC99E020E931E0F90131974A
:10193000F1F70197D9F70E94F1240EC120E541305B
:10194000520731F48091090281608093090204C139
:10195000CA01805090458050904108F056C0652FD4
:1019600077276F70707061307105F9F49A01A4E007
:10197000220F331FAA95E1F720703370CA01F3E0FC
:10198000880F991FFA95E1F780769070282B392BF4
:101990003C684370507002C0660F771F4A95E2F7AB
:1019A0006F717070262B372B2EC06230710529F4B1
:1019B000942F8827816F906A08956330710551F4E0
:1019C0009A0173E0220F331F7A95E1F7207E37707A
:1019D0003C680CC06430710561F59A0163E0220F28
:1019E000331F6A95E1F7207E37703A684370507074
:1019F00081E090E002C0880F991F4A95E2F78F714D
:101A00009070282B392BC9010895CA018050904746
:101A10008050904120F4CA019F7090620895CA01DD
:101A2000805090488050904120F4CA019F70906A85
:101A30000895403E5105F0F4403C510588F541338E
:101A4000510509F476C04233510548F44932510535
:101A500009F465C04A32510509F07AC06FC04933B4
:101A6000510511F142385105F9F04533510509F09E
:101A70006FC050C0433E510569F1443E510540F4EA
:101A8000403E5105C1F0423E510509F061C01DC004
:101A9000463E510559F1473E510509F059C02BC04A
:101AA000CA010E94340C089580911A0280FD0AC078
:101AB00081FD08C04DC080911A0280FF03C089E3F8
:101AC00090E047C080EE90E044C080911A0282FD11
:101AD00008C004C080911A0282FF03C082EE90E029
:101AE00038C084FD11C083EE90E033C080911A02AB
:101AF00083FD08C004C080911A0283FF03C086EEF4
:101B000090E027C084FF03C080E090E022C087EE11
:101B100090E01FC080911A0285FF05C007C0809128
:101B20001A0285FF03C085E390E013C089E290E0CC
:101B300010C080911A0286FF05C007C080911A026A
:101B400086FF03C081E390E004C08AE290E001C018
:101B5000CA010E946F0B08950895E82FF0E0EE0F80
:101B6000FF1FE358FE4F80819181089508954F92A1
:101B70005F926F927F928F929F92AF92BF92CF921D
:101B8000DF92EF92FF920F931F93DF93CF93CDB726
:101B9000DEB72A970FB6F894DEBF0FBECDBFAE01F9
:101BA0004F5F5F4F60E070E0EE24FF24CC24DD2423
:101BB000AA24BB24882499242A0101E010E02BE008
:101BC000622E712C6C0E7D1ED201EDE3F1E08AE0F5
:101BD00001900D928150E1F7FA01808191819C0181
:101BE000207F30702032310559F48F709070980149
:101BF00002C0220F331F8A95E2F7622B732B37C086
:101C00002033310559F48F709070F80102C0EE0F47
:101C1000FF1F8A95E2F7EE2AFF2A29C020343105FA
:101C200059F48F709070980102C0220F331F8A956B
:101C3000E2F7C22AD32A1BC02035310559F48F7030
:101C40009070F80102C0EE0FFF1F8A95E2F7AE2AEE
:101C5000BF2A0DC02036310551F48F709070980165
:101C600002C0220F331F8A95E2F7822A932A4E5F21
:101C70005F4F4615570509F0A7CF24B1962F862F41
:101C80008095822384B985B1982B95B927B19E2D73
:101C90008E2D8095822387B988B1982B98B92AB167
:101CA0009C2D8C2D809582238AB98BB1982B9BB962
:101CB0002DB19A2D8A2D809582238DB98EB1982BC6
:101CC0009EB920B3982D882D8095822380BB81B347
:101CD000982B91BB2A960FB6F894DEBF0FBECDBFEE
:101CE000CF91DF911F910F91FF90EF90DF90CF90F8
:101CF000BF90AF909F908F907F906F905F904F902C
:101D000008954F925F926F927F928F929F92AF92BF
:101D1000BF92CF92DF92EF92FF920F931F93DF93C8
:101D2000CF93CDB7DEB76C970FB6F894DEBF0FBE7A
:101D3000CDBF85B7806885BF85B7806885BF0E94A5
:101D4000B70DAE014F5F5F4F60E070E0EE24FF24FF
:101D5000CC24DD24AA24BB24882499242A0101E070
:101D600010E03DE1632E712C6C0E7D1ED201E7E484
:101D7000F1E08CE101900D928150E1F7FA01808150
:101D800091819C01207F30702032310559F48F7091
:101D90009070980102C0220F331F8A95E2F7622BE0
:101DA000732B37C02033310559F48F709070F801D0
:101DB00002C0EE0FFF1F8A95E2F7EE2AFF2A29C024
:101DC0002034310559F48F709070980102C0220FB1
:101DD000331F8A95E2F7C22AD32A1BC0203531056A
:101DE00059F48F709070F80102C0EE0FFF1F8A95B2
:101DF000E2F7AE2ABF2A0DC02036310551F48F70AC
:101E00009070980102C0220F331F8A95E2F7822A50
:101E1000932A4E5F5F4F4615570509F0A7CF24B1AF
:101E2000962F862F8095822384B985B1982B95B9FA
:101E300027B19E2D8E2D8095822387B988B1982B4E
:101E400098B92AB19C2D8C2D809582238AB98BB1AB
:101E5000982B9BB92DB19A2D8A2D809582238DB90F
:101E60008EB1982B9EB920B3982D882D8095822312
:101E700080BB81B3982B91BB80E090E0FC01E358DC
:101E8000FE4F11821082FC01E957FE4F1182108231
:101E900002968A30910591F78CEE94E0009711F04C
:101EA000FC0109956C960FB6F894DEBF0FBECDBF4E
:101EB000CF91DF911F910F91FF90EF90DF90CF9026
:101EC000BF90AF909F908F907F906F905F904F905A
:101ED00008954F925F926F927F928F929F92AF92EE
:101EE000BF92CF92DF92EF92FF920F931F93DF93F7
:101EF000CF93CDB7DEB7A6970FB6F894DEBF0FBE6F
:101F0000CDBF909002016E010894C11CD11CE7E87E
:101F1000AE2EE1E0BE2EC6015C2C892E71E0E72ECC
:101F2000F12C60EA462E5BE0652E712C6C0E7D1E56
:101F3000852D982DDC01E7E1F1E08AE001900D921A
:101F40008150E1F7F60120813181C901807F9070D5
:101F50008032910589F484B12F703070A70102C0DE
:101F6000440F551F2A95E2F79A01842B84B985B155
:101F70002095282325B94FC08033910589F487B176
:101F80002F703070F70102C0EE0FFF1F2A95E2F7A5
:101F90009F018E2B87B988B12095282328B93BC093
:101FA0008034910589F48AB12F703070A70102C086
:101FB000440F551F2A95E2F79A01842B8AB98BB1F9
:101FC000209528232BB927C08035910589F48DB140
:101FD0002F703070F70102C0EE0FFF1F2A95E2F755
:101FE0009F018E2B8DB98EB1209528232EB913C059
:101FF0008036910581F480B32F703070A70102C044
:10200000440F551F2A95E2F79A01842B80BB81B3B8
:102010002095282321BB842D8A95F1F7830160E068
:1020200070E040E050E0D301E1E2F1E08CE10190AA
:102030000D928150E1F7F80120813181C901807F43
:1020400090708032910511F483B113C080339105F3
:1020500011F486B10EC08034910511F489B109C024
:102060008035910511F48CB104C080369105B9F426
:102070008FB190E02F70307002C0959587952A95AA
:10208000E2F780FF03C080E090E007C0C701062EA2
:1020900002C0880F991F0A94E2F7482B592B6F5FF3
:1020A0007F4F0E5F1F4F6E30710509F0BCCFF501F9
:1020B000808191818417950721F05183408345E009
:1020C000942E0E94B70D42E050E0C40ED51EA40E1F
:1020D000B51EC614D70409F02BCF909202019920A7
:1020E00099F1892D815080930201882329F080EA9B
:1020F0009FE00197F1F728C08091870190918801B6
:1021000090937E0180937D018091890190918A0155
:102110009093800180937F0180918B0190918C013D
:10212000909382018093810180918D0190918E0125
:10213000909384018093830180918F01909190010D
:10214000909386018093850185EE94E0009711F0CD
:10215000FC01099581E0A6960FB6F894DEBF0FBE8C
:10216000CDBFCF91DF911F910F91FF90EF90DF9046
:10217000CF90BF90AF909F908F907F906F905F9027
:102180004F90089510923F02089508950895809108
:1021900094018F5F8093940162E30E94372D99230D
:1021A000A9F51092940180919301882379F180918F
:1021B0004002843049F59091E9008091EC0080FD67
:1021C00002C080E001C080E89F70982B84E080937B
:1021D000E9008091EB0080FF14C08091EE0087FD44
:1021E00003C00FC01092F1008091E80085FDFACF86
:1021F0008091E80080FF05C08091E8008E77809391
:10220000E8009F709093E9001092930108958091E7
:1022100092010895DF93CF9300D00F92CDB7DEB730
:10222000AC0180914002843029F583E08093E9007D
:102230002FEF95ED05C0892F8A95F1F7222329F01C
:102240008091E800215085FFF6CF8091E80085FF5E
:1022500011C05B834A8383E08983CE01019663E0EA
:1022600070E040E050E00E9485148091E8008E7795
:102270008093E8000F900F900F90CF91DF91089519
:10228000DF93CF9300D00F92CDB7DEB7AC01809132
:102290004002843029F583E08093E9002FEF95ED2B
:1022A00005C0892F8A95F1F7222329F08091E80053
:1022B000215085FFF6CF8091E80085FF11C05B8338
:1022C0004A8382E08983CE01019663E070E040E0BA
:1022D00050E00E9485148091E8008E778093E8009A
:1022E0000F900F900F90CF91DF910895AC018091E6
:1022F0004002843001F582E08093E9002FEF95EDF4
:1023000005C0892F8A95F1F7222329F08091E800F2
:10231000215085FFF6CF8091E80085FF0CC0CA01EF
:1023200065E070E040E050E00E9485148091E80094
:102330008E778093E80008950F931F93182F092F2D
:1023400080914002843009F04DC0809103018823C0
:10235000E9F080910E018823C9F085E08093E900BF
:102360009FEF25E105C0822F8A95F1F7992329F087
:102370008091E800915085FFF6CF8091E80085FFBD
:1023800031C0812F902F60E170E018C081E0809310
:10239000E9009FEF25ED05C0822F8A95F1F799237B
:1023A00029F08091E800915085FFF6CF8091E800F8
:1023B00085FF18C0812F902F68E070E040E050E06A
:1023C0000E9485148091E8008E778093E800A5E94B
:1023D000B1E0212F302FC901FC0180E101900D9265
:1023E0008150E1F71F910F91089584B7877F84BFD3
:1023F00088E10FB6F89480936000109260000FBEE1
:1024000080E090E020E80FB6F8942093610080937C
:1024100061000FBE0E94D0180E9463150E94C4156F
:102420008091E20084608093E20078940E946118B9
:102430000E94851984E091E00E9477180CC00E94E8
:10244000202480913E02882331F00E947624882344
:1024500011F00E949A1380914002853081F30E940E
:10246000D618F9CF80913F02882349F40E94631562
:102470000E94C4158091E20084608093E200089578
:1024800080914202833009F457C0843030F48130A7
:1024900071F0823009F0B1C098C08A3009F485C06B
:1024A0008B3009F46AC0893009F0A7C020C0809140
:1024B0004102813A09F0A1C08091E800877F8093B2
:1024C000E8008091450290914602892B21F460E159
:1024D00085E991E003C060E080E090E070E00E9458
:1024E000B0138091E8008B778093E8000895809185
:1024F0004102813209F081C08091450290914602EB
:10250000009719F0049709F078C08091E800877F60
:102510008093E80005C080914002882309F46DC0D3
:102520008091E80082FFF7CF8091F10080939201C3
:102530008091E8008B771CC080914102813A09F0BC
:102540005CC08091450290914602892B09F055C0EC
:102550008091E800877F8093E8008091E80080FF09
:10256000FCCF809103018093F1008091E8008E7789
:102570008093E8000E9410150895809141028132F5
:10258000E1F58091450290914602892BB1F5809149
:10259000E800877F8093E8000E9410158091430235
:1025A000809303010E94ED190895809141028132C8
:1025B00021F58091E800877F8093E8000E94101544
:1025C0008091440280939101089580914102813A63
:1025D000A1F48091E800877F8093E8008091E80073
:1025E00080FFFCCF809191018093F1008091E80001
:1025F0008E778093E8000E941015089581E061ECC9
:1026000042E00E94D81482E061EC42E00E94D814BB
:1026100083E061EC42E00E94D81484E061EC42E285
:102620000E94D81485E061EC42E10E94D81408951C
:102630000E9471240895DA019330C1F0943030F48F
:10264000913051F0923009F06DC00BC0913221F100
:10265000923209F067C03FC0E7E5F7E022E130E0E1
:1026600065C0E9E6F7E02DE830E060C0813051F068
:10267000813020F0823009F055C008C0E6EFF7E065
:10268000849107C0EAEFF7E0849103C0E8E0F8E046
:102690008491282F30E04AC06230A1F0633028F4E2
:1026A000662341F06130F1F508C0633071F06430A9
:1026B000C9F50EC0EBE7F7E002C0E4E9F7E029E076
:1026C00030E034C0EDEAF7E0FACFE6ECF7E0F7CF20
:1026D000E6EEF7E0F4CF6230B1F0633028F4662321
:1026E00041F06130F9F40AC0633091F06430D1F404
:1026F00014C0ECE3F6E02FE330E018C0EBE7F6E0BF
:102700002DE430E013C0E8ECF6E026E330E00EC044
:10271000EEEFF6E020E230E009C0EEE1F7E029E379
:1027200030E004C0E0E0F0E020E030E0ED93FC9326
:10273000C901089580E189BD82E189BD09B400FE27
:10274000FDCF8091D8008F7D8093D8008091E000EC
:1027500082608093E0008091E00081FDFCCF0895CD
:102760009C0140914702509148024617570718F4C0
:10277000F90190E043C06115710511F0AB01F8CF8C
:102780008091E8008E778093E80040E050E0F0CF41
:1027900080914002882309F447C0853009F446C07F
:1027A0008091E80083FD44C08091E80082FD36C03E
:1027B0008091E80080FF22C08091F3009091F200A8
:1027C000782F60E0292F30E0262B372B07C081912E
:1027D0008093F100415050402F5F3F4F411551050C
:1027E00019F02830310598F390E02830310509F4CC
:1027F00091E08091E8008E778093E80041155105C3
:1028000039F6992329F60AC080914002882361F0A5
:10281000853061F08091E80083FD0AC08091E80076
:1028200082FFF2CF80E0089582E0089583E008956A
:1028300081E008959C01409147025091480246175B
:10284000570718F4F90190E044C06115710511F0C3
:10285000AB01F8CF8091E8008E778093E80040E0EC
:1028600050E0F0CF80914002882309F448C08530C1
:1028700009F447C08091E80083FD45C08091E800DD
:1028800082FD37C08091E80080FF23C08091F30073
:102890009091F200782F60E0292F30E0262B372B23
:1028A00008C084918093F1003196415050402F5FD1
:1028B0003F4F4115510519F02830310590F390E054
:1028C0002830310509F491E08091E8008E778093FB
:1028D000E8004115510531F6992321F60AC080918F
:1028E0004002882361F0853061F08091E80083FD2B
:1028F0000AC08091E80082FFF2CF80E0089582E074
:10290000089583E0089581E00895BF92CF92DF9209
:10291000EF92FF920F931F93CF93DF93182F092FFE
:102920007B016A010E943115B82E8823B1F5812FF1
:10293000902F9C01E901C114D10439F0F601808186
:102940009181E81AF90AC80FD91F00E010E022C0EF
:102950008091E80085FD16C08091E8008E77809315
:10296000E800C114D10449F0F60180819181800F03
:10297000911F9183808385E011C00E9431158823C7
:1029800049F00CC089918093F1000894E108F108A6
:102990000F5F1F4FE114F104D9F68B2DDF91CF911A
:1029A0001F910F91FF90EF90DF90CF90BF9008950F
:1029B000382F282F2EC0822F8F708093E900231785
:1029C00021F4762F942F50E006C07091EC00909186
:1029D000ED005091F00091FF1BC08091EB008E7FC5
:1029E0008093EB008091ED008D7F8093ED008091CE
:1029F000EB0081608093EB007093EC009093ED000E
:102A00005093F0008091EE0087FD02C080E00895B1
:102A10002F5F273080F23F703093E90081E0089506
:102A20008091410288239CF404C080914002882355
:102A3000B9F08091E80082FFF8CF8091E8008B77B1
:102A40008093E800089580914002882349F08091A6
:102A5000E80080FFF8CF8091E8008E778093E8004F
:102A600008954091E4005091E50024E68091EC0047
:102A700080FF24C08091E80080FD1EC0809140024C
:102A8000882311F482E00895853011F483E00895DD
:102A90008091EB0085FF02C081E008958091E40001
:102AA0009091E5008417950709F3222311F484E03F
:102AB00008952150AC01DACF80E008958091E800BC
:102AC00082FFDCCFF9CF0E94D6150E94DE15E0EE22
:102AD000F0E0808181608083A8EDB0E08C918F77F9
:102AE0008C9319BCE7EDF0E080818E7F80838C9120
:102AF0008F7E8C9310923F020895EF92FF920F9376
:102B00001F930E94D6150E94DE1508ED10E0F80113
:102B100080818F77808380818068808380818F7DB2
:102B2000808319BC1092400210923C0210923E0227
:102B300010923D0280EEE82EF12CF70180818B7F10
:102B40008083F80180818160808380E060E042E0E2
:102B50000E94D814E1EEF0E080818E7F8083E2EE67
:102B6000F0E0808181608083808188608083F701CC
:102B700080818E7F8083F8018081806180831F91B6
:102B80000F91FF90EF900895E8EDF0E080818F7E47
:102B90008083E7EDF0E080818160808384E082BF04
:102BA00081E080933F020E947D150895E8EDF0E0FA
:102BB00080818E7F80831092E20008951092DA0067
:102BC0001092E10008951F920F920FB60F921124F8
:102BD0001F932F933F934F935F936F937F938F93A5
:102BE0009F93AF93BF93EF93FF931091E900809170
:102BF000EC001092E9008091F000877F8093F00054
:102C000078940E94F1161092E9008091F00088609B
:102C10008093F0001F701093E900FF91EF91BF9136
:102C2000AF919F918F917F916F915F914F913F9164
:102C30002F911F910F900FBE0F901F9018951F920C
:102C40000F920FB60F9211242F933F934F935F93E0
:102C50006F937F938F939F93AF93BF93EF93FF9364
:102C60008091E10082FF0BC08091E20082FF07C0EB
:102C70008091E1008B7F8093E1000E94C7108091DA
:102C8000DA0080FF1FC08091D80080FF1BC08091B8
:102C9000DA008E7F8093DA008091D90080FF0DC02A
:102CA00080E189BD82E189BD09B400FEFDCF81E0EC
:102CB000809340020E94321205C019BC109240025B
:102CC0000E94C2108091E10080FF19C08091E20053
:102CD00080FF15C08091E2008E7F8093E20080919A
:102CE000E20080618093E2008091D800806280934E
:102CF000D80019BC85E0809340020E94C6108091E4
:102D0000E10084FF30C08091E20084FF2CC080E1AC
:102D100089BD82E189BD09B400FEFDCF8091D80054
:102D20008F7D8093D8008091E1008F7E8093E100B9
:102D30008091E2008F7E8093E2008091E2008160CA
:102D40008093E20080913C02882311F084E007C068
:102D50008091E30087FD02C081E001C083E08093A1
:102D600040020E9418138091E10083FF29C08091E6
:102D7000E20083FF25C08091E100877F8093E1001E
:102D800082E08093400210923C028091E1008E7FAD
:102D90008093E1008091E2008E7F8093E200809139
:102DA000E20080618093E20080E060E042E00E9407
:102DB000D8148091F00088608093F0000E94C510C4
:102DC000FF91EF91BF91AF919F918F917F916F9103
:102DD0005F914F913F912F910F900FBE0F901F90D9
:102DE00018951F93DF93CF93CDB7DEB7AC970FB68F
:102DF000F894DEBF0FBECDBFE1E4F2E08091F100B8
:102E0000819322E0E934F207C9F70E9440128091D1
:102E1000E80083FF3EC1809141023091420235308B
:102E200009F487C0363040F43130C9F1313070F0E8
:102E3000333009F02EC133C0383009F4F9C03930CD
:102E400009F409C1363009F024C197C0803821F057
:102E5000823809F01EC108C090913D0280913E0267
:102E6000882399F0926011C0809145028F70809301
:102E7000E9008091EB0090E025E0969587952A95F2
:102E8000E1F7982F91701092E9008091E800877F18
:102E90008093E8009093F1001092F100D4C0882351
:102EA00019F0823009F0F5C090E08F7190700097B2
:102EB00021F0029709F0EDC00CC0809143028130EF
:102EC00009F0E7C010923E02333069F580933E026C
:102ED0002AC080914302882331F5209145022F704A
:102EE00009F4D7C02093E9008091EB0080FF1BC05C
:102EF000333021F48091EB00806213C08091EB00AD
:102F000080618093EB0081E090E002C0880F991F00
:102F10002A95E2F78093EA001092EA008091EB0094
:102F200088608093EB001092E9008091E800877F31
:102F30008DC0882309F0ADC0109143021F778091A6
:102F4000E3008078812B8093E3008091E800877F05
:102F50008093E8000E9410158091E80080FFFCCF6C
:102F60008091E30080688093E300112311F482E0F4
:102F700001C083E0809340028CC08058823008F00A
:102F800088C0809143029091440223E08C3D9207D7
:102F900009F034C083E08C838AE28B837FB7F89496
:102FA000DE0115966EE040E050E011E2E62FF0E021
:102FB00010935700849140FF03C082958F706F5F1C
:102FC0008F70282F30E08A3018F0C901C79602C0F0
:102FD000C901C0968D939D934F5F5F4F443151055A
:102FE00029F77FBF8091E800877F8093E800CE01BA
:102FF00003966AE270E00E94B01314C0609145022B
:10300000AE014F5F5F4F0E941B13BC01009709F494
:1030100040C08091E800877F8093E80089819A8191
:103020000E941A148091E8008B778093E80031C0E9
:10303000803879F58091E800877F8093E80080915F
:103040003C028093F1008091E8008E778093E80045
:103050000E9410151EC08823E1F490914302923023
:10306000C0F48091E800877F8093E80090933C0251
:103070000E94101580913C02882331F48091E30076
:1030800087FD02C081E001C084E0809340020E947D
:10309000FE128091E80083FF0AC08091E800877FDC
:1030A0008093E8008091EB0080628093EB00AC9607
:1030B0000FB6F894DEBF0FBECDBFCF91DF911F9149
:1030C00008951F9380914002882379F01091E900C0
:1030D0008091EC001092E9008091E80083FF02C02B
:1030E0000E94F1161F701093E9001F9108959093AC
:1030F000AA018093A9010895E091A901F091AA0184
:10310000309711F480E008950190F081E02D099549
:103110000895E091A901F091AA01309721F0028071
:10312000F381E02D09950895E091A901F091AA019C
:10313000309721F00480F581E02D099508959C01D8
:103140008091A7019091A8012817390779F0309351
:10315000A8012093A701E091A901F091AA0130975D
:1031600029F00680F781E02DC901099508959C0199
:103170008091A5019091A6012817390779F0309325
:10318000A6012093A501E091A901F091AA01309731
:1031900029F00084F185E02DC9010995089508956D
:1031A0000E94CF1808950E94F70408952F923F922D
:1031B0005F926F927F928F929F92AF92BF92CF92C7
:1031C000DF92EF92FF920F931F93DF93CF93CDB7D0
:1031D000DEB72A970FB6F894DEBF0FBECDBF0E94B0
:1031E000690F2CEA822E21E0922EAA24BB2491E0C2
:1031F000292E312C5A2C8A2D0E94AD0D6C01F40120
:10320000E080F180E826F926E114F104E1F18091F3
:10321000090281FF02C00E94B60D00E010E03101FA
:10322000002E02C0660C771C0A94E2F7C3018E21BF
:103230009F21892B19F10E9494249C0109835A82B1
:103240001B82C620D720CD2811F081E08B83C901D5
:103250008160782F9D838C8349815A816B818D8118
:103260000E94921DF501EE0FFF1FE455FE4F808175
:103270009181862597259183808321C00F5F1F4F01
:103280000E30110561F60894A11CB11C82E090E09B
:10329000880E991E95E0A916B10409F0ABCF0E94E3
:1032A00094242FEF2E832F8318868160782F9A879E
:1032B00089874FEF5FEF60E08A850E94921D0E9430
:1032C00081281091AB010E947C18181731F00E94E0
:1032D0007C188093AB010E94D3182A960FB6F894FD
:1032E000DEBF0FBECDBFCF91DF911F910F91FF9039
:1032F000EF90DF90CF90BF90AF909F908F907F9096
:103300006F905F903F902F9008950E948B240E94B1
:10331000810E0E9459250E94032C0895DF93CF93BC
:1033200000D000D00F92CDB7DEB70F900F900F9066
:103330000F900F90CF91DF910895DF93CF9300D03E
:1033400000D000D0CDB7DEB726960FB6F894DEBF1A
:103350000FBECDBFCF91DF9108950E940922482F63
:10336000892F82958F70282F30E02C3031054CF456
:103370002A3031056CF42250304022303105C0F43F
:1033800007C02C30310551F02F30310589F406C0CB
:10339000403E10F0403F61F481E008959F70892F16
:1033A00090E023E0969587952A95E1F7817008953E
:1033B00080E008950E94E0230E94B2230E94F82337
:1033C0000E946A280E94762880E090E00E949F1860
:1033D00080E090E00E94B71808950E94D0230E94D8
:1033E000DA190895882321F00E94C9230E94F82346
:1033F0000895882321F00E94C3230E94F823089592
:10340000282F882309F44EC0823859F40E947C1872
:1034100081FF48C089E30E9440230E94F82389E38A
:103420000CC0833869F40E947C1880FF3BC083E5A0
:103430000E9440230E94F82383E50E947E231FC040
:10344000843859F40E947C1882FF2CC087E40E94C3
:1034500040230E94F82387E4F0CF8450813A10F48F
:10346000822FEBCF822F805E883060F4277081E05E
:1034700090E001C0880F2A95EAF70E94C9230E94B4
:10348000F8230895822F855A833028F480E090E055
:103490000E949F180895285A233120F480E090E07C
:1034A0000E94B71808951F93182F882309F4D0C0DD
:1034B000823859F40E947C1881FDCAC089E30E94B9
:1034C00040230E94F82389E30CC0833879F40E94DA
:1034D0007C1880FDBDC083E50E9440230E94F82334
:1034E00083E50E947E230E94F823B2C0843859F4F9
:1034F0000E947C1882FDACC087E40E9440230E9499
:10350000F82387E4EECF8450813A50F4812F0E9453
:10351000AD2A882309F09CC0812F0E944023E3CF6D
:10352000812F805E883050F4177081E090E001C0F8
:10353000880F1A95EAF70E94C323D5CF812F855AA9
:103540008330A0F4153A19F481E890E00CC0163AE3
:1035500019F482E890E007C0173A19F080E090E093
:1035600002C083E890E00E949F1872C0812F885AA1
:10357000833108F06DC0183A19F482EE90E066C00D
:10358000193A19F489EE90E061C01A3A19F48AEEFA
:1035900090E05CC01B3A19F485EB90E057C01C3AF0
:1035A00019F486EB90E052C01B3B19F483EB90E0DA
:1035B0004DC01C3B19F484EB90E048C01D3A19F44F
:1035C00087EB90E043C0103B19F48CEC90E03EC0D8
:1035D0001E3A19F48DEC90E039C01F3A19F483E8D3
:1035E00091E034C0113B19F48AE891E02FC0123BFE
:1035F00019F482E991E02AC0133B19F484E991E0BF
:1036000025C0143B19F481E292E020C0153B19F467
:1036100083E292E01BC0163B19F484E292E016C0EC
:10362000173B19F485E292E011C0183B19F486E2C9
:1036300092E00CC0193B19F487E292E007C01A3BF4
:1036400019F080E090E002C08AE292E00E94B71890
:103650001F910895AF92BF92CF92DF92EF92FF92A7
:103660000F931F93DF93CF93CDB7DEB72A970FB693
:10367000F894DEBF0FBECDBF5C01DE011196FC01E8
:1036800085E001900D928150E1F70B81F501F58005
:10369000F2944FE0F422DE011696FE01319685E0A9
:1036A00001900D928150E1F73E812F8189859A85A5
:1036B000892B09F426C22F3F09F0F1C13F3F09F0E1
:1036C000EEC11FC28D2D8F70222311F4182F03C05D
:1036D000182F1295107F002349F0112309F48CC193
:1036E000812F0E94D3230E94F82386C18C2D0E9433
:1036F000001A112309F405C2812F0E94D9230E94C8
:10370000F823FFC18D2D8F70203211F4182F03C0C4
:10371000182F1295107FCC2021F0F1E0CF1609F57B
:1037200014C0002349F0FF2031F121E0F21619F511
:10373000812F0E94E323E5C1FF2021F081E0F816EC
:1037400009F4DFC10E94E6232BC1002329F0E5E044
:10375000EF1508F4D6C10FC0F4E0FF1508F4D1C18D
:103760001FC1002361F0FF2031F0F501858180FF4A
:1037700043C18F708583812F0E94F919C2C1FF2038
:1037800009F40EC144C18D2D86958695837090E015
:10379000009721F0019709F0B4C10AC0002319F085
:1037A000C601937002C080E090E00E949F18A9C1FA
:1037B000002319F0C601937002C080E090E00E94DF
:1037C000B7189FC1002321F08C2D0E94782703C0D9
:1037D0008C2D0E94E2270E94762893C18D2D837044
:1037E00009F05EC0002309F08CC12C2D229526958E
:1037F0002770220F220F8C2D8F70E82EFF2400E0FF
:1038000010E0022E04C0EE0CFF1C001F111F0A94D2
:10381000D2F7C4FC05C060E070E080E090E00FC02B
:103820006FE070E080E090E004C0660F771F881FB3
:10383000991F2A95D2F76095709580959095D694AA
:10384000D694F3E0DF224D2D50E041305105A9F030
:10385000423051051CF4452B49F053C1423051050B
:1038600089F04330510509F04CC113C06E297F29FE
:10387000802B912B0E941B2344C16E297F29802B12
:10388000912B0BC06E297F29802B912B0E940A233C
:1038900038C10E941B23C801B7010E942C2331C1EB
:1038A00090E0002311F496958795817009F429C161
:1038B0002C2D229526952770220F220F8C2D8F708C
:1038C000E82EFF2400E010E0022E04C0EE0CFF1CE6
:1038D000001F111F0A94D2F7C4FC05C060E070E01D
:1038E00080E090E00FC06FE070E080E090E004C006
:1038F000660F771F881F991F2A95D2F760957095DC
:1039000080959095D694D69423E0D2224D2D50E008
:1039100041305105A9F0423051051CF4452B49F0C6
:10392000F0C04230510589F04330510509F0E9C03B
:1039300013C06E297F29802B912B0E946E22E1C03B
:103940006E297F29802B912B0BC06E297F29802B1C
:10395000912B0E945D22D5C00E946E22C801B70142
:103960000E947F22CEC080EFC816F1F08C1520F0A7
:10397000E0EECE16E8F109C0F2EFCF1651F1CF1606
:1039800018F123EFC216A1F529C01C2D1F708D2D33
:103990008F71002319F00E94CC22EDCE0E94AC2240
:1039A000812F0E94F219ADC0002329F084E08F1509
:1039B00008F4A7C004C0E5E0EF1508F4A2C08D2DFF
:1039C0008F710E9490229DC08D2D8F71002329F14F
:1039D00019C08D2D8F710023A9F01FC0002329F07D
:1039E0008D2D8F710E94E8228CC00E94F82289C020
:1039F000002359F0FF2021F08C2D0E94531A81C022
:103A00008D2D8F710E94CC227CC0FF2021F08C2D47
:103A10000E94001A76C08D2D8F710E94AC2271C059
:103A2000FFE0DF22C5016C2D4D2D0E9458040E943D
:103A30008E2167C0002309F064C02FE0D2224D2DF3
:103A400050E042305105C9F04330510544F441156E
:103A5000510569F04130510509F053C00BC04330A6
:103A6000510571F04430510509F04BC00CC00E9463
:103A7000EE2B47C00E94D12B44C00E94BC2B41C0FA
:103A80000E94952B3EC08C2D0E94792B3AC08FE06E
:103A9000D822C5016C2D4D2D0E94730432C089813E
:103AA0009A810E9409226C010E9408220E9407222A
:103AB0008D2D82958F7090E08530910509F482CE2E
:103AC0008630910554F4843091050CF05CCE2D2D98
:103AD000207F02970CF016CEF5CD8C3091053CF48A
:103AE0008A3091050CF03FCF089759F477CE8D308E
:103AF000910509F49FCF8D3091050CF491CF0F976C
:103B000031F22A960FB6F894DEBF0FBECDBFCF912B
:103B1000DF911F910F91FF90EF90DF90CF90BF90BA
:103B2000AF900895DF93CF93CDB7DEB72B970FB645
:103B3000F894DEBF0FBECDBF342F4F83252F58879B
:103B400069877A878B87472F582FFE01319686E049
:103B5000DF011D928A95E9F76B8339832A834C83B1
:103B60005D83432F522F8D819E810E94CF202B9603
:103B70000FB6F894DEBF0FBECDBFCF91DF91089591
:103B80000F931F930091BD0115C010E0F801EE0FD7
:103B9000FF1FE00FF11FEE0FFF1FE254FE4F4081A9
:103BA000518162817381848195810E949D190F5F8B
:103BB0001F4F07708091BC01081739F71F910F91B3
:103BC00008954091B6015091B7016091B80170918C
:103BD000B9018091BA019091BB010E949D1908958D
:103BE0000F931F93CF93DF938091BB0182958F70CA
:103BF00009F06DC08091B801882309F468C0609114
:103C0000BD010091BC014091B9015091BA011091E0
:103C1000B7017091B601EA01C095D09555C0411524
:103C2000510509F44FC01F3F49F480E090E07F3F09
:103C300011F481E090E0882309F044C0262F30E0A1
:103C4000F901EE0FFF1FE20FF31FDF01AA0FBB1FE9
:103C5000A254BE4F11968C911197181799F58C911B
:103C6000781781F5EE0FFF1FE054FE4F8081882307
:103C700049F513968D919C9114978417950718F028
:103C8000841B950B02C08C0F9D1F883C9105D0F4BE
:103C90008091BB018F7080618093BB01F901EE0FB1
:103CA000FF1FE20FF31FEE0FFF1FED53FE4F80814A
:103CB0008F708061808386EB91E00E942A1B0E94B6
:103CC000C01D05C06F5F6770601709F0A8CFDF9156
:103CD000CF911F910F910895DF92EF92FF920F9372
:103CE0001F93DF93CF93CDB7DEB76B970FB6F894E2
:103CF000DEBF0FBECDBF8C01DC011296DC901297A7
:103D00004C9111965C9111971396ED90FC9014973D
:103D10002091B9013091BA016091B7017091B6015B
:103D20002115310509F4DBC16F3F09F003C27F3F64
:103D300009F000C2D4C1E216F30640F0C701821BAD
:103D4000930B883C910508F0EEC008C02095309593
:103D50002E0D3F1D283C310508F0E5C08091BB01C8
:103D6000807F09F095C06F3F09F0EAC17F3F09F0FD
:103D7000E7C115C0741799F4DD2089F48091BB0167
:103D80008F7080618093BB010E94E11D86EB91E002
:103D90000E942A1B8091BB01F8018583BCC1FD8272
:103DA000EC825A834983DB82DE011696FE0131964E
:103DB00085E001900D928150E1F76885DE011B9648
:103DC000FE01369685E001900D928150E1F72C8539
:103DD0003B858E859F85892B09F451C02F3F09F0C3
:103DE000B3C13F3F09F0B0C14AC0FD82EC825A83A3
:103DF0004983DB82DE011B96FE01319685E001904E
:103E00000D928150E1F7FC847B856D858091BD0129
:103E10009091BC011FC0282F30E0F901EE0FFF1F69
:103E2000E20FF31FDF01AA0FBB1FA254BE4F119672
:103E30008C911197F81651F48C91781739F4EE0F94
:103E4000FF1FE054FE4F80816817C9F42F5F3F4F7A
:103E5000822F87708917F9F68DC19F7059F044231E
:103E600049F459C19F7031F0D80115968C91807F2B
:103E700009F451C1405E483008F44DC148C1DD200D
:103E800009F449C18091BB0181608093BB0143C1AA
:103E90006F3F09F05DC17F3F09F05AC114C074172C
:103EA00091F4DD2081F48091BB01F8018583C80184
:103EB0000E942A1BA6EBB1E0F80186E001900D926A
:103EC0008150E1F720C15A83498389819A810E94F8
:103ED000AD19882309F41BC1DD2009F418C1309104
:103EE000BB01832F82958F7090E002979CF0909198
:103EF000B7012091B601FE01709686E0DF011D92A8
:103F00008A95E9F7998B288BFC8AEB8A3D8BCF0148
:103F10000E942A1BA6EBB1E0F80186E001900D9209
:103F20008150E1F7EEC08091BB01807FA9F47E2D26
:103F3000FD82EC825A834983DB826D2D8D810E9444
:103F40008E1906EB11E0C8010E942A1B86E0F801D9
:103F500011928A95E9F7C0C06F3F09F0FDC07F3F1D
:103F600009F0FAC014C0741791F4DD2081F4809137
:103F7000BB01D80115968C93C8010E942A1BE6EB61
:103F8000F1E086E0DF011D928A95E9F7BEC05A8311
:103F9000498389819A810E94AD19882309F4B7C0A9
:103FA000DD2009F4B4C03091BB01832F82958F705E
:103FB00090E002979CF09091B7012091B601FE012C
:103FC000769686E0DF011D928A95E9F79F8B2E8B0E
:103FD000FA8EE98E3B8FCF010E942A1BA6EBB1E03F
:103FE000F80186E001900D928150E1F78AC06F3FA1
:103FF00009F0B6C07F3F09F0B3C071C0E216F30606
:1040000040F0C701821B930B883C910508F053C018
:1040100008C0209530952E0D3F1D283C310508F035
:104020004AC0DD2009F473C06F3F09F09FC07F3F95
:1040300009F09CC029C0741739F59091BB0190FD1F
:104040001AC0892F82958F70B1F0F80195838F3057
:1040500031F08F5F8295807F9F70982B9583C80188
:104060000E942A1BA6EBB1E0F80186E001900D92B8
:104070008150E1F748C0A6EBB1E0F80186E001907D
:104080000D928150E1F741C05A83498389819A8119
:104090000E94AD19882349F0A6EBB1E0F80186E053
:1040A00001900D928150E1F72CC08091BB0181609D
:1040B0008093BB012CC07E2DFD82EC825A83498304
:1040C000DB826D2D8D810E948E19E6EBF1E086E09A
:1040D000DF011D928A95E9F70E94E11D1CC0DD20D9
:1040E000B1F05A83498389819A810E94AD1988234E
:1040F00071F0A6EBB1E0F80186E001900D928150DD
:10410000E1F70E94F01D0E94E11D81E005C0C80199
:104110000E942A1BFACF80E06B960FB6F894DEBFA0
:104120000FBECDBFCF91DF911F910F91FF90EF9008
:10413000DF9008958091B801882309F458CFFBCD12
:10414000651709F02CCE16CE613009F498CE4DCE0D
:10415000651709F0B8CEA3CE651709F018CF03CFC5
:104160008091B801882309F0BACF48CF651709F0CC
:104170008BCF61CF5A83498389819A810E9409221A
:10418000482F892F82958F70282F30E022303105FB
:104190000CF463CE243031050CF0B9CF63CE0F930D
:1041A0001F93DF93CF93CDB7DEB72C970FB6F8945C
:1041B000DEBF0FBECDBF4F83588769877A878B8755
:1041C0009C878E01095F1F4FC8010E946C1E8823C7
:1041D000D9F028853F818A859B85892B09F46BC09E
:1041E0002F3F49F480E090E03F3F11F481E090E000
:1041F000882309F060C04F81588569857A858B8551
:104200009C850E949D1957C0DE011196F80186E039
:1042100001900D928150E1F7F981EA814C815D8135
:104220004115510509F447C0EF3F09F04CC0FF3F6D
:1042300009F049C040C0F983EA835D834C83F901EA
:10424000EE0FFF1FE20FF31FEE0FFF1FE254FE4FB2
:10425000DE01119686E00D9001928150E1F76093A6
:10426000BC010E94C01D27C0919FC001112482542F
:104270009E4F0E946C1E882309F445C08091BD01A9
:1042800090E0FC01EE0FFF1FE80FF91FEE0FFF1F7C
:10429000E254FE4F40815181628173818481958116
:1042A0000E949D198091BD0190E0019687709070E9
:1042B0008093BD0101C016E09091BD018091BC01C9
:1042C000981791F620C08091BC01282F30E02F5F15
:1042D0003F4FB90167707070215030408091BD012F
:1042E00090E06817790709F0A6CF0E94ED191092A7
:1042F000BC011092BD01E6EBF1E086E0DF011D920A
:104300008A95E9F7D8CF2C960FB6F894DEBF0FBE8A
:10431000CDBFCF91DF911F910F910895CF92DF9282
:10432000EF92FF921F93CF93DF93EC01009709F474
:1043300066C010E090EAC92E9FE0D92E81E0E82EF9
:10434000F12CFE0121969491943748F4943008F0B2
:1043500044C0913079F0923009F051C01BC09537BC
:1043600009F437C0953750F1892F8458803708F009
:1043700046C037C0FE0121969491892F805E883017
:1043800060F597708E2D01C0880F9A95EAF70E940C
:10439000D3230FC0FE0121969491892F805E88302F
:1043A00058F497708E2D01C0880F9A95EAF70E94F5
:1043B000D9230E94F82319C0892F15C0FE0124912A
:1043C00004C0C6010197F1F721502223D1F72196AD
:1043D0000CC0FE012196149108C0892F0E94531A27
:1043E00004C0892F8F770E94001A212F04C0C601B4
:1043F0000197F1F72150222309F4A3CFF8CFDF91E1
:10440000CF911F91FF90EF90DF90CF900895089586
:104410000895CF92DF92EF92FF920F931F93CF9365
:10442000DF936C01E090EE01F090EF010091F0015C
:104430001091F1018091F2019091F301A091F401AA
:10444000B091F501E82AF92A0A2B1B2BCFE1D0E025
:10445000D801C7010C2E04C0B695A79597958795EE
:104460000A94D2F781709070892B41F08C2FB6019D
:104470000E94460C9C018130910551F421978FEFE9
:10448000CF3FD80729F780E0B6010E94460C9C0177
:10449000822FDF91CF911F910F91FF90EF90DF90CE
:1044A000CF9008956093F2017093F3018093F4012B
:1044B0009093F5010E94DA1908959B01AC01609177
:1044C000F2017091F3018091F4019091F50162275E
:1044D0007327842795270E94522208959B01AC01DF
:1044E0006091F2017091F3018091F4019091F501D6
:1044F00062237323842395230E94522208959B01F3
:10450000AC016091F2017091F3018091F4019091FE
:10451000F501622B732B842B952B0E945222089558
:1045200021E030E040E050E004C0220F331F441F80
:10453000551F8A95D2F78091F2019091F301A091D5
:10454000F401B091F501282739274A275B27CA01D2
:10455000B9010E945222089521E030E040E050E08D
:1045600004C0220F331F441F551F8A95D2F7209590
:104570003095409550958091F2019091F301A09172
:10458000F401B091F501282339234A235B23CA01A2
:10459000B9010E945222089521E030E040E050E04D
:1045A00004C0220F331F441F551F8A95D2F78091F4
:1045B000F2019091F301A091F401B091F501282B43
:1045C000392B4A2B5B2BCA01B9010E945222089554
:1045D00021E030E040E050E004C0220F331F441FD0
:1045E000551F8A95D2F7CA01B9010E945222089537
:1045F00060E070E080E090E00E94522208956093B5
:10460000EE017093EF018093F0019093F1010E940D
:10461000DA1908959B01AC016091EE017091EF01F0
:104620008091F0019091F1016227732784279527EB
:104630000E94FF2208959B01AC016091EE017091F0
:10464000EF018091F0019091F101622373238423A3
:1046500095230E94FF2208959B01AC016091EE0119
:104660007091EF018091F0019091F101622B732B19
:10467000842B952B0E94FF2208950E94FF2208950B
:10468000382F809103018823E1F080910E01882367
:10469000C1F0832F8695869586958F3070F5E091D1
:1046A0000F01F0911001E80FF11D377081E090E0EB
:1046B00002C0880F991F3A95E2F72181282B2183A8
:1046C0000895A0910F01B0911001FD0120E08FEF3E
:1046D0009281931791F08F3F19F4992309F4822F57
:1046E0002F5F31962E30A1F78F3F39F0992787FD44
:1046F0009095A80FB91F12963C930895482F80916A
:1047000003018823E9F080910E018823C9F0842FEA
:104710008695869586958F3020F5E0910F01F09172
:104720001001E80FF11D477081E090E002C0880F92
:10473000991F4A95E2F7809521818223818308950C
:1047400020E030E0E0910F01F0911001E20FF31F43
:104750008281841709F412822F5F3F4F2E3031057A
:1047600089F7089581E090E0E0910F01F091100148
:10477000E80FF91F1082019680319105A9F708957D
:1047800080910602089590910602982B909306025C
:1047900008958095909106029823909306020895BB
:1047A00010920602089590910802982B90930802A7
:1047B0000895809590910802982390930802089597
:1047C000109208020895809307020895109207023C
:1047D0000895E0910F01F091100120E091E08181B6
:1047E00081112F5F9F5F31969031C9F7822F089515
:1047F000E0910F01F0911001809106028083E09119
:104800000F01F0911001808190910802892B808323
:1048100090910702992369F0E0910F01F091100146
:104820008081892B80830E94E923882311F00E94D4
:10483000E62380910F01909110010E94891808953C
:1048400080914002843009F110920A0220E488E14C
:1048500090E00FB6F894A895809360000FBE209367
:10486000600083B7817F846083BF83B7816083BF2B
:104870007894889583B78E7F83BF88E10FB6F894CC
:1048800080936000109260000FBE0895089508950F
:104890001F920F920FB60F9211248F939F93AF9395
:1048A000BF9380910A02882399F480910B02909122
:1048B0000C02A0910D02B0910E024196A11DB11DF6
:1048C00080930B0290930C02A0930D02B0930E0202
:1048D000BF91AF919F918F910F900FBE0F901F903E
:1048E00018950E94ED190E94032C08951F930E94B1
:1048F00046240E94690F0E94472410E0812F0E94E5
:10490000AD0D892B11F081E004C01F5F1530B1F7A8
:1049100080E01F91089582E084BD93E095BD9AEFF9
:1049200097BD80936E0008958FB7F89420910B0285
:1049300030910C0240910D0250910E028FBFC901BF
:104940000895EF92FF920F931F93BC018FB7F894D5
:10495000E0900B02F0900C0200910D0210910E02FB
:104960008FBFA801970140705070CB01A0E0B0E06C
:10497000281739074A075B0720F09701261B370BDA
:1049800005C09B01209530952E0D3F1DC9011F913B
:104990000F91FF90EF9008951F920F920FB60F9214
:1049A00011248F939F93AF93BF9380910B029091AB
:1049B0000C02A0910D02B0910E020196A11DB11D35
:1049C00080930B0290930C02A0930D02B0930E0201
:1049D000BF91AF919F918F910F900FBE0F901F903D
:1049E00018950E946315F89480E29EE420E931E076
:1049F000F9013197F1F70197D9F787E090EBA7E03C
:104A0000B0EB80934A0290934B02A0934C02B09378
:104A10004D022CE088E190E00FB6F894A8958093C1
:104A200060000FBE20936000FFCFCF92DF92EF9225
:104A3000FF920F931F93CF93DF93082F10E081E035
:104A4000C82ED12C812F0E94AD0D7C01C0E0D0E09A
:104A5000C6010C2E02C0880F991F0A94E2F78E211E
:104A60009F21892B49F080E06C2F712F0E941E0C32
:104A7000081711F481E008C02196CE30D10541F726
:104A80001F5F1530F9F680E0DF91CF911F910F91F4
:104A9000FF90EF90DF90CF9008951F93182F8CE236
:104AA0000E941525882319F0812F0E9415251F913A
:104AB00008951F93CF93DF930E94D226882311F489
:104AC0000E94DD2614E6C0E4DCE905C00E94690FFF
:104AD000CE010197F1F71150C8F789E20E944D25E8
:104AE000882309F02FC18AE20E944D25882311F006
:104AF0000E94DD2685E00E944D25882311F00E944A
:104B0000F1240E94CD268093090287E00E944D2562
:104B10008823B9F18BE10E944D25882349F09091BB
:104B20000902892F869580958170880F9D7F26C008
:104B30008EE00E944D25882359F090910902892F1B
:104B40008695869580958170880F880F9B7F16C00B
:104B500080E10E944D2590910902882359F0892F08
:104B600086958695869580958170880F880F880F29
:104B7000977F04C0892F809581709E7F982B90939A
:104B80000902809109020E94B8260E94C3268093E0
:104B90001A0280EE0E944D25882349F080911A0266
:104BA000982F909591708E7F892B80931A0289E3BC
:104BB0000E944D25882359F090911A02892F8695DD
:104BC00080958170880F9D7F982B90931A0282EEBA
:104BD0000E944D25882369F090911A02892F8695AD
:104BE000869580958170880F880F9B7F982B909376
:104BF0001A0286EE0E944D25882379F090911A02C0
:104C0000892F86958695869580958170880F880F67
:104C1000880F977F982B90931A0283EE0E944D2560
:104C2000882369F090911A02892F82958F70809560
:104C300081708295807F9F7E982B90931A0285E3E6
:104C40000E944D25882379F090911A02892F829530
:104C500086958770809581708295880F807E9F7D74
:104C6000982B90931A0281E30E944D25882389F0A6
:104C700090911A02892F82958695869583708095EA
:104C800081708295880F880F807C9F7B982B9093F2
:104C90001A0281E10E944D25882379F080911A0241
:104CA000982F991F9927991F21E092279795992767
:104CB00097958F77892B80931A0280911A020E9410
:104CC000AC2680911A02881F8827881F80930E01C6
:104CD00087E20E944D25182F8EE10E944D258111FB
:104CE00012608FE10E944D258111146080E20E94C4
:104CF0004D258111186081E20E944D2581111061BE
:104D000082E20E944D258111106283E20E944D25AE
:104D10008111106484E20E944D25811110681123D5
:104D200041F0812F0E94B226612F70E080E090E078
:104D300007C00E94C82690E0A0E0B0E0BC01CD0111
:104D40000E943D23DF91CF911F910895682F86E047
:104D500090E00E947E2D0895682F84E090E00E94EC
:104D60007E2D0895682F83E090E00E947E2D0895A7
:104D7000682F82E090E00E947E2D089586E090E00A
:104D80000E946A2D089584E090E00E946A2D0895A3
:104D900083E090E00E946A2D089582E090E00E94F6
:104DA0006A2D089580E090E00E94782D20E08D5ECD
:104DB0009E4F09F421E0822F089580E090E06DEE8F
:104DC0007EEF0E94942D82E090E060E00E947E2DB4
:104DD00083E090E060E00E947E2D84E090E060E05F
:104DE0000E947E2D85E090E060E00E947E2D86E0AE
:104DF00090E060E00E947E2D08958091150280FF72
:104E00000BC09091130185E0989FC00111249595E6
:104E100087959595879530C081FF09C090911301C2
:104E200085E0989FC00111249595879525C082FF44
:104E300003C0909113010DC080911402882319F4CE
:104E400085E090E008956091140190911301861718
:104E500028F085E0989FC00111240EC0899F900121
:104E60001124C901880F991F880F991F820F931F62
:104E700070E00E94572DCB018038910510F08FE72C
:104E80000895009709F481E008958091150280FF4C
:104E900005C0809115018695869518C081FF04C0D4
:104EA00080911501869512C082FF03C08091150183
:104EB0000DC020911402222319F481E090E008959E
:104EC0006091160180911501261710F090E007C03F
:104ED000289FC001112470E00E94572DCB0180381B
:104EE000910510F08FE70895009709F481E0089587
:104EF000803F21F40E94FD26819504C0813F29F462
:104F00000E94FD26809311020895823F21F40E94A1
:104F1000FD26819504C0833F29F40E94FD268093DD
:104F200010020895893F19F40E94452705C08A3F61
:104F300031F40E94452781958093120208958B3F9A
:104F400021F40E944527819504C08C3F29F40E94DA
:104F50004527809313020895843F21F480910F0226
:104F6000816017C0853F21F480910F02826011C0DB
:104F7000863F21F480910F0284600BC0873F21F4AB
:104F800080910F02886005C0883F31F480910F0244
:104F9000806180930F0208958D3F21F48091150266
:104FA000816005C08E3F31F480911502826080934C
:104FB000150208958F3F29F4809115028460809333
:104FC00015020895803F29F48091110287FF6FC078
:104FD00007C0813F41F48091110218160CF067C0A0
:104FE0001092110264C0823F29F48091100287FF61
:104FF0005EC007C0833F41F48091100218160CF088
:1050000056C01092100253C0893F29F480911202B9
:1050100018163CF04CC08A3F39F48091120287FF89
:1050200046C01092120243C08B3F29F480911302B4
:1050300087FF3DC006C08C3F39F4809113021816DB
:10504000B4F51092130233C0843F21F480910F0213
:105050008E7F05C0853F31F480910F028D7F809354
:105060000F0225C0863F21F480910F028B7FF7CF7E
:10507000873F21F480910F02877FF1CF883F21F491
:1050800080910F028F7EEBCF8D3F21F4809115022E
:105090008E7F0BC08E3F21F4809115028D7F05C05D
:1050A0008F3F29F4809115028B7F809315028091A8
:1050B0001002882371F480911102882351F48091A9
:1050C0001202882331F480911302882311F4109284
:1050D00014020895EFE0F2E085E0DF011D928A9569
:1050E000E9F7109214021092150208958FE092E0F1
:1050F0000E9494180E9494249093170280931602A1
:1051000008951F9380911602909117020E94A12486
:10511000AC0120911402222321F08091120190E031
:1051200006C0909111018AE0989FC0011124481790
:10513000590708F485C090911002992369F4809171
:105140001102882349F480911202882329F4809166
:105150001302882309F474C02F3F19F02F5F2093A6
:105160001402191624F40E94FD26809310028091E7
:10517000100287FF05C00E94FD26819580931002D2
:1051800080911102181624F40E94FD2680931102CA
:105190008091110287FF05C00E94FD2681958093B2
:1051A000110260911002662339F11091110211234E
:1051B00019F1772767FD7095872F972F0E94482C4C
:1051C00023E333E343E35FE30E94AC2C0E94152CFE
:1051D00060931002612F772767FD7095872F972FB7
:1051E0000E94482C23E333E343E35FE30E94AC2CAB
:1051F0000E94152C6093110280911202181624F45B
:105200000E944527809312028091120287FF05C0F9
:105210000E944527819580931202809113021816EF
:1052200024F40E944527809313028091130287FF84
:1052300005C00E9445278195809313020E9476281D
:105240001F91089580E0089580E00895833099F1DA
:10525000843030F4813069F0823009F06FC01AC0B8
:10526000853009F44AC08530B8F1863009F066C04F
:1052700055C020911101822F90E0860F911D8F3F24
:10528000910520F4260F2093110108958FEF80934C
:105290001101089520911201822F90E0860F911D37
:1052A0008F3F910520F4260F2093120108958FEF70
:1052B00080931201089520911301822F90E0860FB0
:1052C000911D8F3F910520F4260F2093130108951F
:1052D0008FEF80931301089520911401822F90E0A5
:1052E000860F911D8F3F910520F4260F2093140106
:1052F00008958FEF80931401089520911501822F56
:1053000090E0860F911D8F3F910520F4260F20938A
:10531000150108958FEF80931501089520911601CE
:10532000822F90E0860F911D8F3F910520F4260F6C
:105330002093160108958FEF80931601089583300E
:1053400031F1843030F4813061F0823009F04AC0AC
:1053500013C0853091F1853028F1863009F042C0C4
:1053600037C080911101681720F4861B80931101CA
:10537000089510921101089580911201681720F488
:10538000861B809312010895109212010895809156
:105390001301681720F4861B80931301089510925F
:1053A0001301089580911401681720F4861B8093DF
:1053B0001401089510921401089580911501681741
:1053C00020F4861B8093150108951092150108950D
:1053D00080911601681720F4861B809316010895AA
:1053E00010921601089521E030E040E050E004C042
:1053F000220F331F441F551F8A95D2F7CA01B901E6
:105400000E943D230E94ED1908958B3109F465C077
:105410008C3100F58E3009F46AC08F3068F4873023
:1054200009F455C0883018F4863089F539C08830C1
:1054300081F18B3061F58FC0813109F47AC08231FE
:1054400018F4803121F55FC0863109F484C08931B8
:10545000F1F481C0853309F475C0863358F487327E
:1054600009F470C0883218F48E3188F06DC089322A
:1054700071F468C0833430F48A3308F067C088332D
:1054800031F469C0833409F45DC0883491F080E060
:1054900008950E94CD260E94C3260E94BE2659C0B0
:1054A00080910902807F8093090281E08093180235
:1054B00008950E94ED1980E197E220E931E0F901B9
:1054C0003197F1F70197D9F70E94F12442C08091FA
:1054D000090280FF2AC0807F29C080910902982F8D
:1054E000969590959170292F220F8D7F19C08091EC
:1054F0000902982F9695969590959170292F220FD5
:10550000220F8B7F0DC080910902982F969596955A
:10551000969590959170292F220F220F220F877F49
:10552000822B809309029923B1F081608093090254
:1055300010C00E94ED1980910E0191E0892780939F
:105540000E0107C080E003C08D5101C089530E9445
:10555000F32981E0089581E008951F93182F809129
:105560001802813079F0813020F0823009F0BCC01F
:1055700037C0E0910F01F09110018081823209F073
:10558000B5C007C0E0910F01F09110018081823217
:1055900049F4812F0E9422298823F9F4812F0E9447
:1055A000052AA5C0812F0E9424298823B1F4143133
:1055B00061F0153128F41B3081F0103141F40AC03C
:1055C000193219F0183319F408C01092180280E04B
:1055D00090E08DC082E08093180281E090E087C067
:1055E000193201F11A3270F41431E1F0153120F45E
:1055F000173009F064C065C0812F8E51863008F0E5
:105600005EC01BC01E3409F455C01F3420F41B3487
:1056100009F055C049C0113509F442C0123509F0EE
:105620004EC03AC080911902882319F010921902D5
:1056300046C081E0809318025AC01232F9F013324A
:1056400060F41F3199F0103218F41E3109F510C0C2
:10565000103281F01132E1F40FC0143299F014329B
:1056600078F0153289F0163299F410C082E011C03A
:1056700081E00FC083E00DC084E00BC085E009C06D
:1056800086E007C087E005C088E003C089E001C06C
:1056900080E08093190213C08091190261E007C075
:1056A0008091190261E009C0809119026AE00E94AC
:1056B000262905C0809119026AE00E949F2981E095
:1056C00016C08EE18093110182E3809312018AE07B
:1056D0008093130184E18093140188E08093150185
:1056E00088E280931601EBCF1092180280E01F91A0
:1056F000089590914902292F26952827220F91700D
:10570000922B9093490220E09E7F09F021E0809146
:1057100049028E7F822B809349020E94A6268091A7
:10572000490286950E942905089580914902282FF3
:1057300026952F5F2F77922F990F8170892B809359
:10574000490230E0263031051CF081708093490217
:1057500090E0809149028E7F09F091E080914902AA
:105760008E7F892B809349020E94A6268091490250
:1057700086950E942905089580914902982F909559
:1057800091708E7F892B809349020E94A62680917A
:10579000490280FD02C080E001C086950E94290573
:1057A000089580914902982F969591F09158990FFC
:1057B0008170892B8093490290E08E7F09F091E0FF
:1057C000809149028E7F892B809349020E94A626F0
:1057D0008091490286950E942905089520914902E9
:1057E0002695822F90E0059744F4822F8F5F880FD3
:1057F0008160809349020E94A62680914902869585
:105800000E94290508950E94D226882311F40E943F
:10581000DD260E94BE268093490280FD02C080E002
:1058200001C086950E942905089504D06894B1119D
:105830008DC0089570D088F09F5790F0B92F9927A8
:10584000B751A0F0D1F0660F771F881F991F1AF08B
:10585000BA95C9F712C0B13081F077D0B1E00895A0
:1058600074C0672F782F8827B85F39F0B93FCCF321
:10587000869577956795B395D9F73EF49095809581
:10588000709561957F4F8F4F9F4F0895E89409C0A1
:1058900097FB3EF490958095709561957F4F8F4F63
:1058A0009F4F9923A9F0F92F96E9BB279395F69579
:1058B000879577956795B795F111F8CFFAF4BB0FF7
:1058C00011F460FF1BC06F5F7F4F8F4F9F4F16C05B
:1058D000882311F096E911C0772321F09EE8872FE5
:1058E000762F05C0662371F096E8862F70E060E0A1
:1058F0002AF09A95660F771F881FDAF7880F96951A
:10590000879597F9089557FD9058440F551F59F002
:105910005F3F71F04795880F97FB991F61F09F3F9C
:1059200079F087950895121613061406551FF2CFC5
:105930004695F1DF08C0161617061806991FF1CF15
:1059400086957105610508940895E894BB2766273C
:105950007727CB0197F908950BD078C069D028F04C
:105960006ED018F0952309F05AC05FC01124EECF15
:10597000CADFA0F3959FD1F3950F50E0551F629FAA
:10598000F001729FBB27F00DB11D639FAA27F00D98
:10599000B11DAA1F649F6627B00DA11D661F829FBF
:1059A0002227B00DA11D621F739FB00DA11D621FA4
:1059B000839FA00D611D221F749F3327A00D611DC1
:1059C000231F849F600D211D822F762F6A2F1124A3
:1059D0009F5750408AF0E1F088234AF0EE0FFF1FF6
:1059E000BB1F661F771F881F91505040A9F79E3F2D
:1059F000510570F014C0AACF5F3FECF3983EDCF382
:105A0000869577956795B795F795E7959F5FC1F769
:105A1000FE2B880F911D9695879597F9089597F914
:105A20009F6780E870E060E008959FEF80EC089544
:105A300000240A941616170618060906089500246D
:105A40000A9412161306140605060895092E0394E7
:105A5000000C11F4882352F0BB0F40F4BF2B11F45B
:105A600060FF04C06F5F7F4F8F4F9F4F0895991B5A
:105A700079E004C0991F961708F0961B881F7A9545
:105A8000C9F780950895AA1BBB1B51E107C0AA1F47
:105A9000BB1FA617B70710F0A61BB70B881F991FCF
:105AA0005A95A9F780959095BC01CD01089597FB73
:105AB000092E07260AD077FD04D0E5DF06D00020A6
:105AC0001AF4709561957F4F0895F6F7909581953A
:105AD0009F4F0895F999FECF92BD81BDF89A9927FD
